S019000052544F532D4C43442D6D6178546F7563682E737265634D
S21440000020E940200D2140000B2140000B214000FC
S2144000100B2140000B2140000B2140000000000057
S214400020000000000000000000000000E524400042
S2144000300B2140000000000085254000ED254000D3
S2144000400B2140000B214000C5424000B543400014
S2144000500B2140000B2140000B2140000B214000AB
S2144000600B21400000000000851A4000991A40000D
S214400070AD1A40000B2140000B2140000B214000F0
S214400080C11A4000D51A40000B2140000B21400009
S2144000900B2140000B2140000B2140000B2140006B
S2144000A00B2140000B2140000B2140000B2140005B
S2144000B00B2140005D0240000B2140000B21400018
S2144000C00B2140000B2140000B2140000B2140003B
S2144000D00B2140000B2140000B2140000B2140002B
S2144000E0710240000B2140000B2140000B214000D4
S2144000F00B2140000B2140000B2140000B2140000B
S2144001000B2140000B2140000B2140000B214000FA
S2144001100B2140000000000000000000000000002E
S2144001200B2140000B2140000B2140000B214000DA
S2144001300B2140000B2140000B2140000B214000CA
S2144001400B2140000B2140000B2140000B214000BA
S2144001500B2140000B2140000B2140000B214000AA
S2144001600B2140000B21400010B5054C237833B9D5
S214400170044B13B10448AFF300800123237010BD35
S214400180E009402000000000B48C46000C4B43B110
S2144001900C480D4910B5AFF300800C48036823B9EE
S2144001A010BD0A48036833B97047094B002BF7D097
S2144001B0BDE810401847064B002BF5D0184700BF47
S2144001C000000000B48C4600E4094020B48C460091
S2144001D00000000070B582B0026BC36A1340019302
S2144001E000241C4E1C4DA84214BF002001200501CF
S2144001F00BE00E2C1ED8019A04F10C0101238B4013
S214400200134210D10134102C22D00B2CF1D8019A75
S2144002100123A3401342F5D02B1956F82330002B68
S214400220F0D09847EEE72B1956F82330002BE9D04C
S2144002309847E7E7019A04F10F0101238B401342E8
S214400240E0D02B1956F82330002BDBD09847D9E75F
S21440025002B070BD14C840200040064008B50248B1
S214400260024B984708BD00BF00C00340D501400080
S21440027008B50248024B984708BD00BF00400640FC
S214400280D501400021B9436823F00103436070471D
S214400290436843F00103436070470162704730B4DF
S2144002A085688468A54203D085688468AC42FBD1E3
S2144002B061B1C4F3015000EB8005C4F3034000EB8A
S2144002C0450014F4800F18BF0C30086042B1C4F3E8
S2144002D0023101EB8101C4F3032000EB41011160C0
S2144002E043B1C4F3021202EB820204F00F0404EBA3
S2144002F042041C6030BC7047F0B4446814F0010FF0
S21440030005D00C2903D90C394FF4800700E00027AC
S2144003101C4CA4FB0356F60806EB8605A3EB4503E8
S21440032043EA0613A4FB0265ED0843EA053305EBF2
S2144003308505A2EB450543EA05233B43A4FB014262
S214400340D20843EA025302EB8202A1EB420143EA9F
S2144003500141836913F0040FFBD0036843F00103A7
S2144003600360836913F0010FFBD00123C3618160F2
S214400370036823F001030360C06A00F00100F0BC8C
S214400380704700BFCDCCCCCC70B42A4DA5FB0346FD
S214400390F608039C640544EA067406EB8606A3EB5F
S2144003A0460344EA0363A5FB0264E40843EA0453B5
S2144003B004EB8404A2EB440243EA02421E4BA3FB36
S2144003C001439B0942EA03121C4BA3FB01435B0912
S2144003D0A5FB0364E40804EB8404A3EB44031A433C
S2144003E0A5FB0143DB0803EB8304A1EB440142EA8F
S2144003F00122A5FB0315ED0805EB8505A3EB450596
S21440040042EA0532836913F0040FFBD0036843F0D9
S21440041002030360836913F0010FFBD00123C3611D
S214400420C260036823F002030360C06A00F0020063
S21440043070BC7047CDCCCCCCD34D62101F85EB51F1
S21440044080697047C1617047034B1B6843F4802343
S2144004501943016000207047FC09402041B9094A11
S214400460136823F080731360026813430360704779
S214400470044A136843F080731360026813430360B2
S214400480704700BFFC0940200268034B1B681943B5
S21440049011430160704700BFFC094020036823EA0F
S2144004A00101024B1B68194301607047FC0940205C
S2144004B0826883689A4203D0826883689342FBD1FD
S2144004C018467047C068704770B506460D460468C3
S2144004D004F480344FF4803109480A4B98472DB9CC
S2144004E04FF0FF33736024B9002070BD013D756046
S2144004F0F9E74FF480310248034B9847F4E700BFD2
S21440050030180E409D044000890440002DE9F0411B
S2144005109CB00446484D19AB95E8070003C31A80C3
S21440052010AE05F10C070FCF0FC60FCF0FC63B68B6
S21440053033600DAB05F1300207CA03C31A7004AE30
S2144005403C350FCD0FC60FCD0FC62B683370002538
S21440055003953A4B02934A278DF80C70384B01931B
S2144005601320384B9847384E01A93046374B9847AA
S21440057002233A4631462046354EB0472A460621A3
S2144005802046344EB047012201462046324FB847F7
S2144005903248334B98472A4607212046B047202208
S2144005A001462046B8472A4607212046B047411C08
S2144005B0102289B22046B8472A4607212046B0472F
S2144005C0811C4B2289B22046B8472A46072120463E
S2144005D0B047C11C842289B22046B8472A46082123
S2144005E02046B04719AA01462046DFF87880C04723
S2144005F02A4609212046B04710AA01462046C04751
S2144006002A462E212046B0470DAA01462046C0471E
S2144006102A4638212046B04704AA01462046C0470D
S2144006202A4606212046B047811C012289B2204630
S214400630B8471CB0BDE8F081F8BD4000801A0600FF
S21440064080D1F008091C400000800140551E400043
S2144006506906400001094000B9094000D828320028
S2144006600100402041094000F0B587B004460E46E0
S21440067017468160027383610025056107209D4B04
S214400680984720600195059502230293039007231F
S21440069004938DF8147001A93046974B9847401B39
S2144006A018BF0120404208B107B0F0BD2568A879C0
S2144006B000EB400040008F4B98476060002301935A
S2144006C00493059307238DF8043002230293039086
S2144006D0AB7903EB43035B000493237B8DF8143024
S2144006E001A9A068844B9847003018BF01204042BB
S2144006F00028D9D127686068BB7903EB43067600AB
S2144007000736B6B23A4606370021DFF8F0C192F80F
S21440071001E0157845EA0E2585EA410111F0807F13
S21440072018BF81EA0C010232BA42F0D1027843EA9D
S214400730022383EA410212F0807F03D082F4000253
S21440074082F01B02A6F10807012F12DD0123DFF815
S214400750ACE1C1184D78C15C41EA052181EA42020C
S21440076012F0807F18BF82EA0E0202339BB2BB4271
S214400770EFDB304410F8083C83EA420212F0807FF8
S21440078003D082F4000282F01B0222F07F45002351
S214400790019305938DF80460360A8DF805600223B0
S2144007A00293CDF80CD003230493237B8DF81430AA
S2144007B001A9A068504B984728B34FF0FF33AB428F
S2144007C040F08B802568A87998B100230133DAB2CF
S2144007D09042FBD86268431EDBB2013303EB43030F
S2144007E002EB4301002053791844C0B206329142CE
S2144007F0F9D140003F4B98476061AB7973B1002711
S2144008000126BE4637E09DF802209DF8003043EAB8
S21440081002439DF8012043EA0223D0E76FF003002D
S21440082042E70130C0B262685319197981421CD33D
S2144008305B79002BF5D062682A445379002BF0D0C0
S21440084033461178626902F81310626902EB43027C
S21440085050700133DBB262682A44991B92F805C097
S214400860C9B28C45EDD81E46DBE70137FFB2236898
S2144008709B799F4207D207EB47035A0015466368A9
S21440088013447046D4E75BB31046013BDBB20133FA
S21440089003EB430302EB4302002143791944C9B2F8
S2144008A006308242F9D1F1B162691378092B0FD034
S2144008B000230133DBB28B420CD012F8020F09281A
S2144008C0F7D15BB2B3F1FF3F10D023770020EBE6C1
S2144008D00023F6E76FF00300E6E66FF00300E3E67A
S2144008E06FF00300E0E66FF00300DDE66FF0030014
S2144008F0DAE600BF39594000891E40001B008000E0
S21440090003689A79D2B110B4446823788B420ED0EB
S214400910A31D013AD2B2013202EB420204EB42027C
S214400920934209D01C4613F8060B8842F8D1B4F817
S21440093001005DF8044B70470020FAE7002070473E
S21440094030B587B000230193049305938DF80410C7
S2144009500B0A8DF8053002230293039203689A79B6
S214400960BAB14468B4F801308B420FD0A31D013AA7
S214400970D2B2013202EB420204EB4202934216D05C
S2144009801C460633B4F801508D42F7D1E278013266
S214400990D2B20492037B8DF8143001A98068054BCF
S2144009A09847003018BF0120404207B030BD0022B3
S2144009B0EFE700BF351F400000B589B08DF807202F
S2144009C00023039307938DF80C10090A8DF80D1039
S2144009D0022304930DF10703059301230693037B3B
S2144009E08DF81C3003A98068044B9847003018BF28
S2144009F00120404209B05DF804FB00BF351F4000AF
S214400A008269074B03EB52135B02D96B02F01F025D
S214400A10012303FA02F20A420CBF18460020704730
S214400A200707200030B587B004460D460022052152
S214400A300D4B98470023019305938DF80400000A58
S214400A408DF8050002230293039509230493237B24
S214400A508DF8143001A9A068044B9847003018BFA1
S214400A600120404207B030BD01094000891E4000C9
S214400A70F0B585B004460E46174D184F2046A84799
S214400A8028B301A92046B847034610BB9DF804305A
S214400A90626912F81320092AF0D1227F9B1A33701C
S214400AA09DF8053073709DF808309DF806101A09B9
S214400AB042EA011272809DF8072003F00F0343EAD2
S214400AC00213B3809DF80930B371002301E06FF044
S214400AD00303184605B0F0BD010A4000250A400051
S214400AE010B51048104B98473E2100200F4B9847B2
S214400AF00F4CA0470028FCD00E4B98470E4A0F4B91
S214400B009A620F4CA0470028FCD002200D4B984715
S214400B1000200D4B98470D4B98470D48024B984781
S214400B2010BD00BF000E2707E1224000851B400095
S214400B30D91B4000E91B4000013F182000060E402C
S214400B40F91B4000E91A4000211B4000D521400017
S214400B5000A3E11110B50446104B9847802323604C
S214400B60636843F001036360636843F010036360A7
S214400B70636823F08003636000212046084B984753
S214400B80636823F002036360636823F004036360D2
S214400B9000212046034B984710BD00BF291C40004B
S214400BA0551C40006B1C40002DE9F04104460D46A4
S214400BB0164615491846154B9847074600231A46C9
S214400BC029682046DFF85C80C0470822296820460E
S214400BD00F4B9847FAB2296820460E4B9847082292
S214400BE0296820460C4B98477208296820460B4BCC
S214400BF0984786F0010202F0010229682046084B19
S214400C009847BDE8F08100BF80D1F008471D4000FE
S214400C10331D40005D1D4000ED1C4000B11C4000EF
S214400C20CF1C4000851D400008B5436813F0040FF4
S214400C3006D009680F2900D908BD064B984708BD5D
S214400C4009680329F8D8012303FA01F1C943014B87
S214400C509847F1E7551C40001AB110B40C461144B1
S214400C6006E00020704714F8013BC360A1420CD058
S214400C7043F69923026912F0020FF4D1013BF9D1F1
S214400C806FF002005DF8044B70470020FAE73AB177
S214400C9070B415460C460D44FF2640F2012112E082
S214400CA000207047C66043F69923026931EA020283
S214400CB004D0013BF9D16FF002000EE0836804F8DF
S214400CC0013BA5420BD043F69923026912F0020F6E
S214400CD0E8D1013BF9D16FF0020070BC70470020AC
S214400CE0FBE700002DE9F04180B90C469046002A0B
S214400CF00FDD8F18084E094D306821462B689847FF
S214400D000134BC42F8D14046BDE8F0814FF0FF3890
S214400D10F9E78046F7E700BF9CC8402094C84020CB
S214400D200138022815D82DE9F0410E4614469AB1EE
S214400D300D46DFF838800C4FD8F8000015F8011B38
S214400D403B68984700280ADBA81B013CF4D1BDE865
S214400D50F0814FF0FF3070471046BDE8F0814FF00D
S214400D60FF30BDE8F08100BF98C840209CC84020B6
S214400D702DE9F0414FF400429E4B5A60BFF34F8F2F
S214400D80BFF36F8F9C4B0022C3F850225A6942F43F
S214400D9000325A61BFF34F8FBFF36F8FD3F8807026
S214400DA0C7F34E3607F007000430C7F3C907B7FA53
S214400DB087FE0EF01F0EBFF34F8F4FF0FF3404FA3E
S214400DC000FC06FA00F004FA0EF407FA0EFE1D4682
S214400DD03A46734640EA0301C5F86012013A234496
S214400DE0B2F1FF3FF6D1013E6044B6F1FF3FEFD18E
S214400DF0BFF34F8F804B5A6942F480325A61BFF33B
S214400E004F8FBFF36F8F7D4A7D495160A1F580714A
S214400E105160BFF34F8FBFF36F8FD3F8902222F00D
S214400E200102C3F89022D3F8942222F00102C3F8BC
S214400E309422BFF34F8FBFF36F8F0A20714CA047A9
S214400E400B20A0470C20A0471020A0471120A04709
S214400E506D4E4FF48078C6F81080C6F8A080C6F86D
S214400E6030806A4C4FF400656561C4F8A0506566F2
S214400E70C4F8905065652562C4F88450236F23F407
S214400E8000632367636F23F400636367C4F8C0504E
S214400E90C4F8D450C4F8B0504FF400132366C4F8D6
S214400EA0903063656362C4F88030226F22F400128B
S214400EB02267626F22F4001262676360544AD2F877
S214400EC0143143F01003C2F8143102F5B222102355
S214400ED01366C2F8903053655362C2F88030116F83
S214400EE019431167516F19435167536008222266B0
S214400EF0C4F8902062656262C4F88020216F21F0B9
S214400F0008012167616F21F008016167626023660E
S214400F10C4F8903063656362C4F88030226F22F074
S214400F2010022267626F22F010026267636000233D
S214400F304FF400524FF060513046364FB8470023CA
S214400F404FF080424FF060513046B8470123FF22B1
S214400F504FF000613046B84701233F224FF0006112
S214400F602D48B84701234FF4C0324FF00061204669
S214400F70B847012342464FF000613046B847012348
S214400F802A464FF000613046B84701234FF400220E
S214400F904FF000612148B84700234FF400724FF0ED
S214400FA080513046B8474FF4007130461C4B984746
S214400FB04FF0805174201B4CA0474FF08051752055
S214400FC0A0474FF080517620A0474FF080517B20BD
S214400FD0A0474FF060511820A0474FF060510620C0
S214400FE0A0474FF060515320A04753200E4B9847E0
S214400FF0BDE8F08150180E4000ED00E0000C0E40B9
S2144010000C08005A091C400000120E40000E0E400C
S214401010008008408D17400000160E4000140E4019
S21440102093164000951840005D18400030B40468A0
S214401030B4F5A07F02D340F23F1404601468B4F5C0
S214401040A07F02D340F23F1414600C68B4F5F07FE2
S21440105002D340F2DF140C601C68B4F5F07F02D374
S21440106040F2DF141C6004681568AC4201D9056084
S21440107014600A681868824201D908601A6030BC59
S2144010807047000010B582B006200A4B98470023F0
S21440109003222C210848094CA04700230193019BBA
S2144010A0FE2B05D8019B01330193019BFE2BF9D9FA
S2144010B002B010BD79184000008000407D1C400002
S2144010C070B582B005460E4614460620144B984727
S2144010D00023032229461348134DA84700230193B3
S2144010E0019BFE2B05D8019B01330193019BFE2BF0
S2144010F0F9D90CB902B070BD06200C4B9847224671
S214401100314608480A4B984700230193019B5E2BC3
S214401110F0D8019B01330193019B5E2BF9D9E9E797
S21440112079184000008000407D1C40005D1840005B
S214401130590C400030B583B004460D4606200A4B95
S21440114098472A4621460948094B98470023019369
S214401150019BFE2B05D8019B01330193019BFE2B7F
S214401160F9D903B030BD00BF5D1840000080004094
S214401170590C4000014630B1034A044B013BFDD1B7
S2144011809142FAD870477047A1860100A0860100B8
S21440119000B583B058B948238DF8073001220DF1C9
S2144011A007013620044B984703B05DF804FBE8235C
S2144011B08DF80730F2E700BFC110400010B584B08C
S2144011C0ADF80E00013A0244ADF80C20ADF80A1016
S2144011D0013B1944ADF80810030A8DF804308DF829
S2144011E00500C2F307238DF806308DF80720042249
S2144011F00DEB02012A20104CA04700221146104653
S214401200A0479DF80B308DF804309DF80A308DF8D5
S21440121005309DF809308DF806309DF808308DF879
S214401220073004220DEB02012B20A0470022114676
S2144012301046A04704B010BDC110400008B50022BB
S21440124011462920014B984708BD00BFC1104000F9
S21440125010B4C0F30744C0F30721064B03F5707281
S2144012601C705970987003339342F9D15DF8044B63
S214401270704700BF000A402010B584B0ADF80600A5
S214401280ADF80410030A8DF80C30C0B28DF80D008E
S2144012908DF80E308DF80F00042203A92A200E4C3C
S2144012A0A047002211461046A0479DF805208DF81D
S2144012B00C209DF804308DF80D308DF80E208DF8FA
S2144012C00F30042203A92B20A047002211461046C7
S2144012D0A04704B010BD00BFC11040002DE9F04348
S2144012E087B08146032706AE46F8087D5D4D284602
S2144012F05D4B9847002400945C4B3A46314628465E
S214401300DFF89881C047224639462846584B9847CA
S21440131031462846574B9847012028606861224648
S2144013202146554EB047C820544DA8472246214630
S2144013301120B047C820A84781238DF80A308DF881
S2144013400B4010264FF001084B4F254642460DF104
S2144013500A01FB20B8479DF80A3001338DF80A3061
S2144013600395039BFE2B05D8039B01330393039BF6
S214401370FE2BF9D92A462946D320B8470620404BAB
S214401380984742460DF1090136483E4B984703952B
S214401390039BFE2B05D8039B01330393039BFE2B35
S2144013A0F9D99DF80930B3401C4342460DF10B0174
S2144013B0FB20B8470395039A40F6FE739A4206D838
S2144013C01A46039B01330393039B9342F9D9083E85
S2144013D016F1080FBAD149F288439C4203D0012047
S2144013E007B0BDE8F08306AD482305F8013D01226D
S2144013F029463620204EB0476420204CA047042380
S2144014008DF8173001222946CF20B0476420A047E8
S21440141006238DF81730012229463A20B04764202B
S214401420A047002211461320B0476420A047164B21
S21440143098476420A0470020144B98476420A04754
S214401440B9F80430B9F8002000210846104CA047EF
S214401450D9F808000F4B9847002108460E4B98478E
S2144014600020BDE700800040550B4000002D3101B4
S214401470ED1C4000290C4000C11040007511400092
S2144014805D1840008F0C40003D1240009111400016
S214401490BD1140005112400079124000A90B400097
S2144014A02DE9F04184B003900291019204AA42F8DB
S2144014B0103D134601AA02A903A8224CA047BDF836
S2144014C00C00BDF80810009B01335B1A019A0132EC
S2144014D0121A9BB292B21C4CA0471C4B98470399D9
S2144014E0019D691A009D0135029BED1A01FB0555C9
S2144014F0174BA3FB05231B0A63B15C1EDFF858801D
S2144015004FF47077134E39464046B047013CB4F12D
S214401510FF3FF8D10E49A1FB0531090A01EB8101D5
S214401520A5EB811101EB41010B480A4B98474FF45C
S214401530F0734FF4A07200210846034CA04704B055
S214401540BDE8F0812D104000BD11400085104000E0
S214401550CDCCCCCC35114000000A4020002A4AD0E1
S2144015602DE9F84F0746884615465600C6F103064D
S2144015700024DFF888A005E0063606EB8406013432
S214401580A54235D3A7422CBFA7EB040B4FF0000B68
S214401590A8452CBFA8EB0501002107EB04090B4624
S2144015A04A465846D04708EB05010B464A46584639
S2144015B0D047AF422CBFA7EB050B4FF0000BA04522
S2144015C02CBFA8EB0401002107EB05090B464A4651
S2144015D05846D04708EB04010B464A465846D04783
S2144015E0002EC9DB631B0A3606EB8306013DC6E7C1
S2144015F00020BDE8F88F0120704700BFA1144000CE
S21440160010B584B003900291013A10440190013B1A
S214401610194404AB43F8101D01AA02A903A8134CB1
S214401620A047BDF80C00BDF80810009B01335B1ABC
S214401630019A0132121A9BB292B20D4CA0470399FE
S214401640019A511A029A009B9A1A02FB01F202EB87
S214401650420206992C20074B98474FF4F0734FF4FC
S214401660A07200210846A04704B010BD2D104000CF
S214401670BD114000C1104000C0F8841053004FF424
S2144016800042B2FBF3F2013AC2F30D02C0F88C20DE
S214401690704701637047416370474264B1F1C05F71
S2144016A03AD013D8B1F1006F25D0B1F1805F0AD19E
S2144016B0036F13430367436F416F0B4023EA0203F4
S2144016C04367426070470029FBD17047B1F1205F05
S2144016D021D009D8B1F1005FF3D1036F13430367FC
S2144016E0436F13434367ECE7B1F1405F13D0B1F16A
S2144016F0605F10D0E5E710B4016F046FD34321401C
S2144017001C4619400167436F416F0B4023404367B7
S21440171042605DF8044B7047036F016F0B4023EA4D
S21440172002030367436F13434367CAE7416412F0FB
S214401730010F0DD1016612F00A0F0BD0016212F0B4
S214401740020F09D112F0080F08D0C0F8841005E047
S2144017504166F0E74162F2E7C0F8801041610160FF
S214401760704710B4019C41644CB901664BB10165A9
S2144017704AB94163016101605DF8044B70474166B8
S214401780F4E74165F4E70163F4E7000070B582B022
S214401790054616461C46B1F1005F14D00AD9B1F191
S2144017A0405F24D0B1F1605F21D0B1F1205F17D007
S2144017B000201AE0B1F1805F05D0B1F1C05F02D0E1
S2144017C0B1F1006FF4D132462846114B984714F0D9
S2144017D0010F02D12E66012007E06E66012004E06C
S2144017E01A4631460B4B9847012002B070BD04F0B4
S2144017F001030093C4F38003B1F1605F14BF00227D
S214401800012231462846044CA0470120EDE700BFA0
S2144018109B1640002D1740006317400012F0100F33
S21440182012D0C0F8B01012F0200F07D0C0F8D41075
S21440183012F0400F05D0C0F8C0107047C0F8D01066
S214401840F6E7C0F8C4107047C0F8B410704701649B
S2144018507047C06C7047806C70470000054B03EBC8
S21440186050135B0200F01F00012202FA00F01863DA
S214401870704700BF07072000054B03EB50135B0281
S21440188000F01F00012202FA00F05863704700BFC4
S2144018900707200070B582B00D46464C04EB501446
S2144018A0640201F0F043B3F1005F59D00AD8B3F1B7
S2144018B0805F2FD0B3F1C05F3FD0B3F1006F16D03A
S2144018C0002012E0B3F1405F5DD0B3F1605F5AD0C4
S2144018D0B3F1205FF4D100F01F0101262A4606FA34
S2144018E001F12046344B9847304602B070BD00F0B8
S2144018F01F000126864032464FF0006120462F4B9F
S214401900984715F0010F02D126660120EDE766667E
S2144019100120EAE700F01F000126864032464FF0DD
S21440192080512046254B984715F0010F02D1266678
S2144019300120DAE766660120D7E700F01F0001269F
S214401940864032464FF0C05120461C4B984715F013
S214401950010F02D126660120C7E766660120C4E76C
S21440196000F01F000126864032464FF000512046C8
S214401970124B984715F0010F02D126660120B4E7B6
S21440198066660120B1E705F0605200F01F010126AF
S21440199005EA06030093C5F38003B2F1605F14BF07
S2144019A00022012206FA01F12046054CA0473046A7
S2144019B09BE700BF070720002D1740009B164000FE
S2144019C0631740002DE9F041044688460E4B984781
S2144019D0054620460D4B9847054013D00C4C04F165
S2144019E0600603E0B4420DD010345DB12068404537
S2144019F0F8D161682942F5D0E3689847636825EADC
S214401A000305EFE7BDE8F081531840005718400043
S214401A10C00D4020F8B5184C2668062E2AD84FF040
S214401A20000C6446154F04E00134E4B2A446A642D6
S214401A3009D3A64625017D598D42F5D107EB0415FD
S214401A406D689542F0D10D4D4FEA0E1E05EB0E0423
S214401A5045F80E106260A3600699E160013666455F
S214401A6005D011461A46064B98470020F8BD024955
S214401A700E60F6E70120F8BD300E4020C00D402035
S214401A801D18400008B50A210148024B984708BD7A
S214401A90000E0E40C519400008B50B210148024B08
S214401AA0984708BD00100E40C519400008B50C21E7
S214401AB00148024B984708BD00120E40C519400029
S214401AC008B510210148024B984708BD00140E4047
S214401AD0C519400008B511210148024B984708BD7A
S214401AE000160E40C5194000032811D0042812D015
S214401AF002280CBF4FF480710021084A136B23F470
S214401B0040730B431363936E13F0080FFBD070477C
S214401B104FF44071F1E74FF40071EEE700060E40D7
S214401B20174A136B23F0700318431063936E13F039
S214401B30080F0AD14FF4805311498A6E12F0080FED
S214401B4003D1013BF9D1012070470D4A136B23F0B6
S214401B50030343F002031363936E13F0080F0AD196
S214401B604FF4805306498A6E12F0080F05D1013BA8
S214401B70F9D101207047002070470020704700BF11
S214401B8000060E40A0B90E48036A090289B20D4A03
S214401B901A400D4B1343194301620246936E13F0ED
S214401BA0010FFBD0064A116A084B0B43136270477D
S214401BB003490B6A064A1A40064B13430B627047AA
S214401BC000060E40FCFFC8FF01003700000037014A
S214401BD0FCFFC8FE02003701024B986E00F48030CE
S214401BE0704700BF00060E404FF00052014B9A620D
S214401BF0704700BF00060E40024B986E00F0020091
S214401C00704700BF00060E4000F07F00054BC3F84B
S214401C100C01D3F80C2142F01022C3F80C2100200E
S214401C20704700BF00060E4008B5074B984203D0E9
S214401C30064B984204D008BD1520054B984708BD72
S214401C402A20034B9847F6E7008000400080054076
S214401C50091C4000436823F470234360436809042A
S214401C6001F47021194341607047436823F07F4375
S214401C704360436843EA01614160704730B443F6CD
S214401C809924056915F0020F03D1013CF9D10120D2
S214401C900CE0446814F0020F06D0120402F47022DE
S214401CA011430BB141F08071C160002030BC7047D9
S214401CB032B900EB8100036B23F0010303637047E6
S214401CC000EB8100036B43F001030363704732B9B6
S214401CD000EB8100036B23F002030363704700EBC5
S214401CE08100036B43F0020303637047042A03D06A
S214401CF06AB1082A16D0704700EB8100036B23F0C8
S214401D0008030363036B43F004030363704700EB6D
S214401D108100036B23F008030363036B23F0040383
S214401D200363704700EB8100036B43F008030363D3
S214401D30E1E700EB81010B6B23F0F0030B630B6BC9
S214401D401A430A637047431E1944B1FBF0F0431E22
S214401D50FE2B94BF00B24FF0FF3070477AB110B4FC
S214401D60144600EB81010B6B23F47F430B630A6B35
S214401D7042EA04220A6300205DF8044B70474FF0A5
S214401D80FF30704710B400EB8101086B80B20863E7
S214401D900C6B44EA036343EA02430B635DF8044B6F
S214401DA070470000284B99424BD8A3F57A53994286
S214401DB02DD910B4254CA4FB0234A40B033C244B71
S214401DC00B449B00B2FBF3F2033AFF2C1DD90021D3
S214401DD001316408FF2C01D90629F9D9FF2A07D911
S214401DE0062905D801315208FF2A01D90629F9D912
S214401DF013029BB2090401F4E0210B43E4B22343EF
S214401E00036100205DF8044B70470021E6E7490077
S214401E10B2FBF1F2033AFF2A11D9002301335208EC
S214401E20FF2A01D9062BF9D9110289B21B0403F403
S214401E30E0230B43D2B21A430261002070470023CE
S214401E40F2E70120704700BF801A0600F1197605B8
S214401E500012FD3F08B54FF0FF328262026A8022D0
S214401E600260026B082202602022026004220260A6
S214401E700A684968034B9847012814BF0020012090
S214401E8008BD00BFA51D4000CA68002A4CD070B4EB
S214401E908C68002646604B681B0203F4407343F48C
S214401EA080530D7C2D0405F4FE052B434360C6602D
S214401EB04D685DB10B78012D02DD4E7846EA03236E
S214401EC0022D04DD897841EA032300E00023C36045
S214401ED001230360022512E0056013F0020F1BD0B9
S214401EE0036B2370036A13F0010FFBD0036A0020D4
S214401EF070BC7047036B04F8013B013AF2D0036AAA
S214401F0013F4807F14D147F23051012AE4D013F005
S214401F10020FEFD1002AE5D0036A13F4807F05D183
S214401F200139F2D10920E3E7012070470520DFE7B9
S214401F300520DDE7CB68002B43D070B48C680026C4
S214401F4046600A7C120402F4FE024D682D0205F437
S214401F5040752A434260C6604D685DB10A78012DDF
S214401F6002DD4E7846EA0222022D04DD897841EAF7
S214401F70022200E00022C26004E014F8012B426313
S214401F80013B0FD0026A12F4807F1ED112F0040F7C
S214401F90F3D1026A12F4807F15D112F0040FECD10F
S214401FA0002BF6D1036A13F4807F11D113F0040F8F
S214401FB0F8D002230360036A13F0010FFBD0002021
S214401FC004E001207047052000E0052070BC704703
S214401FD00520FBE7436913F0020F02D0C1610020E1
S214401FE0704701207047436913F0010F03D083699F
S214401FF00B70002070470120704710B40B019342CD
S21440200014D9C9004B0803EBC202B2FBF1F2D30865
S2144020105C1E4FF6FE718C4201D9012017E04168E4
S21440202041F4002141600CE0012010E0590801EB2A
S214402030C202B2FBF3F2D3085C1E4FF6FE718C422E
S214402040F2D8120402F4E0221A43026200205DF83D
S214402050044B7047084BC0F8E430002343604362AB
S214402060836288230360242303604FF480730360F5
S2144020704FF40023036070470041535570B5054642
S2144020800C4616460F4B984700220F4B1A60A4B1D9
S2144020903246216828460D4B9847024678B9636811
S2144020A0A1680B4321690B43E1680B4306490B606B
S2144020B069680B436B60104670BD0122FBE7012246
S2144020C0F9E700BF55204000340E4020FB1F40007B
S2144020D0402303607047102303607047436913F042
S2144020E0020F04D0C1F30801C161002070470120EF
S2144020F07047436913F0010F05D08369C3F30803A3
S2144021000B600020704701207047FEE700B583B0A3
S214402110254B264A9A4210D0254B234A9A420CD247
S214402120013B9B1A23F00303043313441F4951F821
S214402130040B42F8040B9A42F9D11E4B1E4A9A42AF
S2144021400AD2013B9B1A23F00303043313440021B5
S21440215042F8041B9342FBD1184A194B23F07F03E5
S2144021609360EFF31083B3FA83F35B09019372B67F
S214402170BFF35F8F0022134B1A700199124A1368FF
S21440218043F470031360BFF34F8FBFF36F8F29B1D3
S21440219001220C4B1A70BFF35F8F62B60B4B984709
S2144021A00B4B9847FEE700BF00004020B48C46002B
S2144021B0E009402020C94020E009402000ED00E032
S2144021C0000040000A00402088ED00E0E95840004A
S2144021D0F54E40003B4B1B6B03F00303012B1DD019
S2144021E083B1022B36D0374B1B6B03F07003702B3A
S2144021F05FD0344B1A6B3449C2F302120B68D3409B
S2144022000B607047314B5B6913F0800F14BF4FF47F
S21440221000424FF4FA422C4B1A60E4E7294B1B6A03
S21440222013F0807F03D02A4A274B1A60DBE7294AFF
S214402230254B1A60234B1B6A03F07003102B05D006
S214402240202BD0D1224A204B1A60CCE7224A1E4B84
S2144022501A60C8E71B4B1B6A13F0807F16D01C4AD7
S214402260194B1A60174B1B6B03F00303022BBAD1B2
S214402270144A916A926A1448C1F30A41036801FB02
S2144022800333D2B2B3FBF2F30360ACE7114A0E4B12
S2144022901A600C4B1B6A03F07003102B05D0202BE2
S2144022A0E0D10B4A084B1A60DCE70B4A064B1A6033
S2144022B0D8E7054A13680949A1FB03135B08136076
S2144022C0704700BF00060E400C00402010180E401D
S2144022D0001BB70000093D0000127A00ABAAAAAA6C
S2144022E0164B984213D9164B984215D9154B98421F
S2144022F016D9154B984217D9144B984218D9144BF7
S214402300984294BF134A144A144B1A6070474FF0D1
S2144023108062124B1A607047114A104B1A60704721
S214402320104A0E4B1A6070470F4A0C4B1A607047A3
S2144023304FF00422094B1A60704700BFBFF35E019E
S2144023407FE7BD023FDB1C04FFCE7B05BFC2DA063B
S2144023507FB639080005000400060004000C0E4055
S2144023600001000400020004000300040A4B1B683E
S21440237053B1094B1B681A180849914208DB1046AE
S214402380054A106018467047054A034B1A60F0E746
S2144023904FF0FF30704700BF380E4020FCFF45200E
S2144023A020EB40204FF0FF3070474FF400534B6017
S2144023B000207047012070470020704700F1080356
S2144023C043604FF0FF328260C360036100230360C6
S2144023D0704700230361704743684B609A688A6081
S2144023E09A685160996008610368013303607047DA
S2144023F030B40D68B5F1FF3F02D000F1080202E0AC
S214402400026904E01A4653681C68A542FAD253682B
S2144024104B6099608A6051600861036801330360CD
S21440242030BC704703694268816891608268416841
S21440243051605A68904205D00022026118680138FF
S2144024401860704782685A60F6E700000D4B1B68BC
S214402450B3F1FF3F0AD04FF0800372B683F3118882
S214402460BFF36F8FBFF34F8F62B6FEE74FF0800328
S21440247072B683F31188BFF36F8FBFF34F8F62B688
S214402480FEE700BF1000402006480068006880F362
S214402490088862B661B6BFF34F8FBFF36F8F00DF19
S2144024A000BF000008ED00E0DFF80C00016841F4D2
S2144024B0700101607047000088ED00E04FF08073C7
S2144024C040F8043C40F8081C054B40F80C3C40F8EB
S2144024D0202C6FF0020340F8243C4438704700BF7D
S2144024E04D244000064B19680868B0E8F04F80F36A
S2144024F00988BFF36F8F4FF0000080F31188704754
S2144025004CC64020704700BF4FF0800372B683F33E
S2144025101188BFF36F8FBFF34F8F62B60B4A1368B5
S21440252001331360012B0FD1094B1B6813F0FF0FCB
S2144025300AD04FF0800372B683F31188BFF36F8FD3
S214402540BFF34F8F62B6FEE7704700BF10004020D3
S21440255004ED00E00A4B1B6853B94FF0800372B697
S21440256083F31188BFF36F8FBFF34F8F62B6FEE7DA
S214402570013B034A13600BB983F31188704700BFD1
S21440258010004020EFF30980BFF36F8F154B1A6899
S2144025901EF0100F08BF20ED108A20E9F04F1060A3
S2144025A04DF8043D4FF0800072B680F31188BFF3BB
S2144025B04F8FBFF36F8F62B601F0AAF84FF000005E
S2144025C080F3118808BC19680868B0E8F04F1EF020
S2144025D0100F08BFB0EC108A80F30988BFF36F8FE6
S2144025E0704700BF4CC64020704700BF08B5EFF3A9
S2144025F011834FF0800272B682F31188BFF36F8F5B
S214402600BFF34F8F62B6054B984718B14FF08052D4
S214402610034B1A60002383F3118808BD7D334000C6
S21440262004ED00E0034A044B1A600722043B1A609C
S214402630704700BF7FA9030014E000E000B583B0F8
S214402640254B1A78D2B20192FF221A701B78DBB261
S2144026508DF803309DF8033003F080031F4A137053
S21440266007221F4B1A609DF8033013F0800F10D0DE
S214402670062200E00A469DF803305B00DBB28DF888
S21440268003309DF80330511E13F0800FF2D1144BE7
S2144026901A60134A13681B0203F4E0631360019B3D
S2144026A0DBB20D4A13700F4B1A6842F460021A6090
S2144026B01A6842F060421A600B4B984700220B4B58
S2144026C01A600B4B98470B4A136843F0404313601D
S2144026D0094B9847094B984700E400E03C0E4020E1
S2144026E0400E402020ED00E025264000100040200F
S2144026F0A924400034EF00E0892440004D244000E7
S214402700EFF305830F2B11D9124A9B5CDBB2124ABA
S21440271012789A420AD94FF0800372B683F3118832
S214402720BFF36F8FBFF34F8F62B6FEE70B4B1B684E
S21440273003F4E0630A4A126893420AD94FF08003D2
S21440274072B683F31188BFF36F8FBFF34F8F62B6B5
S214402750FEE77047F0E300E03C0E40200CED00E062
S214402760400E402038B5044610F0070F02D020F047
S21440277007040834114B9847114B1B6893B1114B13
S2144027801B681C44A34213D24BF2F77294420FD8F4
S2144027900B4A15681D440B4B1C600B4B98474DB1BC
S2144027A0284638BD094B23F00703054A1360E6E781
S2144027B0054B9847064B98470025F1E761334000A4
S2144027C0440E402048C64020C9344000500E4020A9
S2144027D0AF42400050B14FF0800372B683F3118889
S2144027E0BFF36F8FBFF34F8F62B6FEE770470000B0
S2144027F038B504461546026C5AB90368002B2ED1EC
S21440280040681B4B984700236360A36B0133A36368
S21440281038BD6DB98068174B9847A368226C13443F
S214402820A360626893421CD32368A3600020ECE751
S214402830C068104B9847236C5B42E2681A44E260DB
S21440284021688A4202D262681344E360022D0AD1AC
S214402850A36B53B1A36B013BA3630020D5E70020D5
S214402860D3E70020D1E70020CFE70020CDE700BF28
S214402870113B4000A95E400030B583B00190446DE6
S21440288074B1A26BE36B9A4215D34FF0800372B6D5
S21440289083F31188BFF36F8FBFF34F8F62B6FEE7A7
S2144028A04FF0800372B683F31188BFF36F8FBFF388
S2144028B04F8F62B6FEE7A26B934203D800252846A8
S2144028C003B030BD0A4601A920460B4B9847054643
S2144028D0A36CB3F1FF3F0AD1636A002BEFD004F13B
S2144028E02400064B9847002818BF0125E7E7A36C4D
S2144028F00133A364E3E700BFF1274000E53840001A
S214402900026C72B110B50346C4681444C460406893
S214402910844201D31868D8600846D968014B984766
S21440292010BD7047A95E4000F8B50446224B984754
S214402930A36C002B1BDD214D214F224E0BE0636A1A
S214402940ABB104F12400B04778B9A36C013BA36453
S214402950A36C002B0BDD636D002BF0D000212046CE
S214402960A8470128F1D1B847EFE7B847EDE74FF061
S214402970FF33A364144B98470F4B9847636C002B68
S21440298014DD236993B104F110060E4D0C4F07E099
S214402990636C013B6364636C002B07DD23692BB1DA
S2144029A03046A8470028F3D0B847F1E74FF0FF334A
S2144029B06364054B9847F8BD0925400079284000D8
S2144029C0413A4000E53840005525400038B508B348
S2144029D004460D461D4B98472268216CE36B03FB6B
S2144029E001F3D01860600020A063A2605B1A134415
S2144029F0E3604FF0FF336364A364FDB923692BB1F2
S214402A0004F11000124B984701280ED0114B9847FE
S214402A10012038BD4FF0800372B683F31188BFF3B0
S214402A206F8FBFF34F8F62B6FEE74FF080520A4B70
S214402A301A60BFF34F8FBFF36F8FE7E704F11000C4
S214402A40064DA84704F12400A847DFE709254000C3
S214402A50E53840005525400004ED00E0BD23400029
S214402A60F8B550B94FF0800372B683F31188BFF3C0
S214402A706F8FBFF34F8F62B6FEE7064617460D468A
S214402A8089B101FB00F05930124B98470446E8B92B
S214402A904FF0800372B683F31188BFF36F8FBFF396
S214402AA04F8F62B6FEE758200A4B984704460028E8
S214402AB0EED02060E663256401212046064B984709
S214402AC084F85070002363652046F8BD00F1580333
S214402AD00360EFE765274000CD2940002DE9F04F21
S214402AE085B00192B8B1044601B3022B2CD01D46E6
S214402AF08846664B9847002834D1019B002B38D037
S214402B004FF0800372B683F31188BFF36F8FBFF325
S214402B104F8F62B6FEE74FF0800372B683F311889C
S214402B20BFF36F8FBFF34F8F62B6FEE7026C002A8B
S214402B30DBD04FF0800372B683F31188BFF36F8FFC
S214402B40BFF34F8F62B6FEE7E26B012ACFD04FF05D
S214402B50800372B683F31188BFF36F8FBFF34F8F36
S214402B6062B6FEE700274A4EDFF850A1DFF82C9108
S214402B7042E00027F7E72A4641462046454B98471D
S214402B80636D9BB129462046434B9847012807D1A1
S214402B904FF08052414B1A60BFF34F8FBFF36F8F99
S214402BA03F4B9847012005B0BDE8F08F636A73B18C
S214402BB004F124003B4B98470128F1D14FF0805256
S214402BC0364B1A60BFF34F8FBFF36F8FE8E700288E
S214402BD0E6D04FF08052314B1A60BFF34F8FBFF3B1
S214402BE06F8FDDE72E4B98470020DCE720462E4BC4
S214402BF098472E4B98470127B047A26BE36B9A4203
S214402C00B9D3022DB7D0019B002BEBD00FB902A849
S214402C10D047234B9847264B9847B047636CB3F151
S214402C20FF3F01D100236364A36CB3F1FF3F01D1A2
S214402C300023A3641A4B984701A902A81D4B984746
S214402C40E0B9B047D4F838B0E76B154B9847BB456A
S214402C50CCD1019904F11000174B98472046124BEF
S214402C609847124B98470028C5D14FF08053C9F873
S214402C700030BFF34F8FBFF36F8FBCE720460A4B41
S214402C8098470A4B984700208DE700BF4D3A4000D2
S214402C9009254000F12740007928400004ED00E077
S214402CA055254000E538400029294000C9344000F9
S214402CB061334000AD394000E13740007D39400087
S214402CC0002836D02DE9F041044600293CD0022B9E
S214402CD048D01E4615468846354B9847EFF3118731
S214402CE04FF0800372B683F31188BFF36F8FBFF344
S214402CF04F8F62B6A26BE36B9A4201D3022E4FD13E
S214402D003246414620462B4B9847A36CB3F1FF3FD3
S214402D1041D1636D002B33D031462046264B984731
S214402D20002D3FD001283DD1286087F31188BDE8AB
S214402D30F0814FF0800372B683F31188BFF36F8F34
S214402D40BFF34F8F62B6FEE7006C0028BFD04FF04F
S214402D50800372B683F31188BFF36F8FBFF34F8F34
S214402D6062B6FEE7E06B0128B3D04FF0800372B640
S214402D7083F31188BFF36F8FBFF34F8F62B6FEE7C2
S214402D80636A8BB104F124000C4B984775B168B167
S214402D9001202860C9E7A36C0133A3640120C4E77F
S214402DA00020C2E70120C0E70120BEE70120BCE7C3
S214402DB001274000F127400079284000E5384000D0
S214402DC02DE9F04784B0019298B10446E1B19846A7
S214402DD00F46614B984728BB019B53B34FF0800387
S214402DE072B683F31188BFF36F8FBFF34F8F62B60F
S214402DF0FEE74FF0800372B683F31188BFF36F8F00
S214402E00BFF34F8F62B6FEE7026C002ADFD04FF06A
S214402E10800372B683F31188BFF36F8FBFF34F8F73
S214402E2062B6FEE700264D4DDFF860A1DFF83C9124
S214402E304BE00026F7E7E56839462046484B98477A
S214402E40B8F1000F1DD1A36B013BA363236813B9F0
S214402E50444B9847606023696BB104F11000424BC5
S214402E609847012807D14FF08052404B1A60BFF375
S214402E704F8FBFF36F8F3E4B9847012004B0BDE89D
S214402E80F087E560636A002BF5D004F12400364BEA
S214402E9098470028EFD04FF08052344B1A60BFF36B
S214402EA04F8FBFF36F8FE6E7314B98470020E5E73B
S214402EB0A84760682F4B98472D4B984730E02046F0
S214402EC02D4B98472D4B98470126A847A36B002BC0
S214402ED0B1D1019B002BE7D00EB902A8D047244BB6
S214402EE09847274B9847A847636CB3F1FF3F01D1FB
S214402EF000236364A36CB3F1FF3F01D10023A364B6
S214402F001B4B984701A902A81E4B9847E8B9A8470B
S214402F10A66B174B9847002ED1D12368002BC7D0FD
S214402F20019904F12400184B98472046124B9847C5
S214402F30124B98470028C7D14FF08053C9F800304D
S214402F40BFF34F8FBFF36F8FBEE720460A4B9847BD
S214402F500A4B9847002091E74D3A4000092540002B
S214402F6001294000CD3B4000E538400004ED00E03C
S214402F70552540006D3A400029294000C93440009C
S214402F8061334000AD394000E13740007D394000B4
S214402F9010B40B4B1B6853B10123094C54F8332033
S214402FA032B10133082BF9D15DF8044B704700234A
S214402FB0034A42F8331002EBC3035860F4E700BFFD
S214402FC0A0C8402070B504460D4616460F4B98479D
S214402FD0636CB3F1FF3F0BD0A36CB3F1FF3F0AD055
S214402FE00B4B9847A36B4BB120460A4B984770BD96
S214402FF000236364F0E70023A364F1E732462946E2
S21440300004F12400044B9847EEE700BF0925400032
S214403010552540002929400065384000084B1B686C
S2144030201B683BB1064B1B68DB68DB685A68054B80
S2144030301A6070474FF0FF32024B1A60704700BF6D
S21440304050C64020FCC6402010B50F4B1B68586049
S2144030500E4B1B6898420ED304460D4B18680A4B1D
S214403060196804310B4B98470B4B1B689C4201D2A6
S214403070094B1C6010BD094B1868034B1968043196
S214403080044B984710BD00BF4CC6402044C7402064
S21440309050C64020F1234000FCC6402054C6402085
S2144030A02DE9F04F83B00C9DDDF834A00E9E60B144
S2144030B0042D15D94FF0800372B683F31188BFF301
S2144030C06F8FBFF34F8F62B6FEE74FF0800372B646
S2144030D083F31188BFF36F8FBFF34F8F62B6FEE75F
S2144030E00190984691460F4636B99000624B9847F5
S2144030F00646002800F09E8058205F4B98470446BE
S214403100002800F0948006634FEA8902A5213046E5
S2144031105A4B98476FF040464E44236B03EB86036A
S21440312023F007063B7884F834303B78002B40F099
S2144031308480002784F83D70E562A564E76404F166
S21440314004094846DFF884B1D84704F11800D84748
S2144031502461C5F10503A3616462276584F8547051
S214403160424601993046464B98472060BAF1000FD8
S21440317001D0CAF80040434B9847434A136801338E
S2144031801360424B1B68002B66D1404B1C60136893
S214403190012B21D13E4F38463E4EB04707F1140032
S2144031A0B04707F12800B04707F13C00B04707F1A9
S2144031B05000B047DFF818814046B047364F384693
S2144031C0B0473648B0473648B0473648B047364BE3
S2144031D0C3F80080354B1F60354A136801331360CF
S2144031E02364E06A334A1168012383400B4313602B
S2144031F000EB80004946264B03EB80002E4B984759
S2144032002E4B98472E4B1B68002B31D01F4B1B680C
S214403210DB6A9D422ED94FF080522A4B1A60BFF38C
S2144032204F8FBFF36F8F012003B0BDE8F08F30465D
S214403230254B98474FF0FF30F6E73B4604F1340203
S2144032400937597802F8011F13F8011F00293FF487
S21440325070AFBB42F5D16CE7194B1B68002BBBD156
S2144032600A4B1B68DB6A9D42B6D3084B1C60B3E72B
S2144032700120D9E70120D7E765274000DD5F400001
S214403280BD24400009254000BCC640204CC6402016
S21440329058C64020BD234000E8C6402004C7402012
S2144032A030C740201CC7402050C6402054C640204F
S2144032B0C8C64020D0C64020D923400055254000EF
S2144032C018C7402004ED00E0D5274000D323400037
S2144032D0D4C6402010B584B00023039302930193D4
S2144032E00093822216491748174CA04701280BD056
S2144032F020BB4FF0800372B683F31188BFF36F8F05
S214403300BFF34F8F62B6FEE7104B98470128EFD1C8
S2144033104FF0800372B683F31188BFF36F8FBFF30D
S2144033204F8F62B64FF0FF32094B1A600122094BAD
S2144033301A600022084B1A60084B984704B010BD2C
S21440334058BE400079364000A1304000B93C4000AD
S214403350FCC6402018C7402044C740203D264000B9
S214403360024A136801331360704700BFC4C640204A
S214403370014B1868704700BF44C740202DE9F0470E
S214403380424B1B68002B78D1414B1A6801321A60B9
S2144033901E68D6B93F4B1B681B6853B14FF080037D
S2144033A072B683F31188BFF36F8FBFF34F8F62B649
S2144033B0FEE7384A1168384B186810601960374A7B
S2144033C0136801331360364B9847364B1B689E4252
S2144033D018D20024344B1B68DB6A03EB8303334A62
S2144033E052F82330022B28BF0124314B1B680BB9FF
S2144033F0304B9847304B1B68002B0CBF20460120B3
S214403400BDE8F0870024DFF88C90DFF8B8802B4FBB
S2144034101FE04FF0FF32234B1A60DBE7214A136070
S214403420D8E705F11800C047E86A3A6801238340A8
S21440343013433B6000EB800051461C4B03EB80007F
S2144034401F4B9847184B1B68EA6ADB6A9A4228BFAC
S2144034500124D9F800301B68002BDAD0D9F80030A8
S214403460DB68DD686B689E42D8D305F1040A504697
S214403470C047AB6A002BD4D1D6E70D4A1368013358
S21440348013600C4B98470024B4E700BFC4C64020E6
S21440349044C7402050C6402054C6402000C7402065
S2144034A01D304000FCC640204CC6402058C6402038
S2144034B0C0C64020AD42400048C74020D0C640204D
S2144034C0D9234000252440002DE9F843384B1B689B
S2144034D053B94FF0800372B683F31188BFF36F8FF2
S2144034E0BFF34F8F62B6FEE7324B9847304B1A68B1
S2144034F0013A1A601B68002B55D12F4B1B68002BD6
S21440350032D100242D4B98472046BDE8F883FB680F
S214403510DC6804F11800B04704F104084046B047A0
S214403520E06A2A680123834013432B6000EB800047
S214403530414609EB8000224B9847224B1B68E26AC3
S214403540DB6A9A420CD23B68002BE0D11E4B1B68CC
S214403550DBB11D4B1B68C3B11C4E1D4D1A4C0EE013
S21440356001221B4B1A60EEE71A4F1B4E1B4DDFF82D
S2144035707490E8E72368013B236023682BB1B0478B
S2144035800028F7D001232B60F4E7114B1B68012B72
S2144035900BD14FF08052124B1A60BFF34F8FBFF3E0
S2144035A06F8F0124AEE70024ACE70024AAE700BFF3
S2144035B0C4C6402009254000BCC6402055254000D2
S2144035C0D92340004CC64020C0C640207D33400032
S2144035D048C7402004C7402025244000D0C640208D
S2144035E004ED00E058C6402010B5002829D0044617
S2144035F0184B1B6853B14FF0800372B683F31188A3
S214403600BFF36F8FBFF34F8F62B6FEE7124B9847FC
S214403610124B1B681C44124B18680430114B9847D9
S21440362048B90F4B1A6810490B68D06A012282408D
S21440363023EA02030B6020460C4B98470C4B9847F6
S21440364038B94FF080520B4B1A60BFF34F8FBFF321
S2144036506F8F10BDC4C640206133400044C7402031
S2144036604CC6402025244000D0C64020493040006B
S214403670C934400004ED00E080B5DFF88880194E7C
S214403680DFF884902AE0184B1B68012B1ED82B6865
S214403690002BF8D0C0473468B847002CF7D0134BFF
S2144036A09847F368DC68201D114B9847114A136809
S2144036B0013B13602B68013B2B600F4B9847206BF8
S2144036C0DFF848A0D0472046D047E0E74FF0805389
S2144036D0C9F80030BFF34F8FBFF36F8F074D084FC9
S2144036E0D5E700BF30C7402058C6402009254000D7
S2144036F025244000BCC6402055254000CCC640206E
S214403700C93440006133400004ED00E0D527400056
S2144037102D4B1B68002B2CD110B500222B4B1A606A
S2144037202B4B1B681B6B1A68B2F1A53F03D15A6836
S214403730B2F1A53F21D0264B186819683431254B85
S2144037409847254B1B68B3FA83F3DBB2C3F11F03DC
S21440375003EB8301214A52F82120BAB94FF0800387
S21440376072B683F31188BFF36F8FBFF34F8F62B685
S214403770FEE70122154B1A6070479A68B2F1A53FE2
S214403780D9D1DB68B3F1A53FD5D1DAE7134A990022
S214403790C81802EB800044686468446019440246D6
S2144037A00832944209D003EB83030C4A02EB8303AE
S2144037B05B68DA68064B1A6010BD6068074A02EB21
S2144037C081025060EFE700BFC4C6402048C7402093
S2144037D04CC6402095424000D0C6402058C64020A7
S2144037E038B5E0B10C46174D29681831164B984746
S2144037F028680430154B984740B92A6814490B6826
S214403800D06A0122824023EA02030B60B4F1FF3FF4
S21440381010D0104B186820440F4B984738BD4FF0D7
S214403820800372B683F31188BFF36F8FBFF34F8F59
S21440383062B6FEE7034B196804310848084B9847C0
S21440384038BD00BF4CC64020F12340002524400030
S214403850D0C6402044C74020493040001CC74020C6
S214403860D9234000E8B170B515460C46164E31686F
S2144038701831164B984730680430154B984740B976
S214403880326814490B68D06A0122824023EA020358
S2144038900B60012D10D0104B186820440F4B9847F2
S2144038A070BD4FF0800372B683F31188BFF36F8FFD
S2144038B0BFF34F8F62B6FEE7034B196804310848E2
S2144038C0024B984770BD00BF4CC64020D9234000ED
S2144038D025244000D0C6402044C740204930400000
S2144038E01CC7402038B5C368DC6824B304F118050B
S2144038F028461A4B98471A4B1B683BBB251D284643
S214403900164B9847E06A174A1168012383400B43D9
S214403910136000EB80002946134B03EB8000134BEB
S2144039209847134B1B68E26ADB6A9A4213D9012018
S214403930104B186038BD4FF0800372B683F3118881
S214403940BFF36F8FBFF34F8F62B6FEE729460A4834
S214403950064B9847E5E7002038BD00BF25244000C9
S214403960C4C64020D0C6402058C64020D923400078
S2144039704CC6402048C7402004C7402030B1094AC2
S21440398012680260084A1268426070474FF080032F
S21440399072B683F31188BFF36F8FBFF34F8F62B653
S2144039A0FEE700BF00C7402044C7402038B5C0B13E
S2144039B0044609B30D461D4B98471D4B1A682B68A5
S2144039C0B3F1FF3F2ED01B4909682068884202D0D9
S2144039D061688A4228D26168501A834217D8012407
S2144039E01CE04FF0800372B683F31188BFF36F8FED
S2144039F0BFF34F8F62B6FEE74FF0800372B683F395
S214403A001188BFF36F8FBFF34F8F62B6FEE79B1AE6
S214403A100B442B602046084B98470024074B98479A
S214403A20204638BD0024F9E70124F7E70925400081
S214403A3044C7402000C740207D39400055254000FF
S214403A400122014B1A60704748C74020054B1B684F
S214403A5033B1054B1B68002B0CBF0220002070477B
S214403A600120704718C74020C4C64020002844D0D4
S214403A7038B50446C26A21490968C96A8A4214D2DE
S214403A808169002905DB1D490968C96AC1F105013C
S214403A90816102EB82021A4901EB8202616991421E
S214403AA004D0164A1268D26AE26238BD251D2846FE
S214403AB0144B984770B9E36A03EB8301104A52F8F7
S214403AC021203AB910480268012101FA03F322EA9C
S214403AD003030360094B1B68D86AE0620A4A116810
S214403AE0012383400B43136000EB80002946044BC0
S214403AF003EB8000054B984738BD70474CC64020C6
S214403B0058C6402025244000D0C64020D923400037
S214403B1000284DD038B50446274A126890420AD04D
S214403B204FF0800372B683F31188BFF36F8FBFF3F5
S214403B304F8F62B6FEE7C26C52B94FF0800372B642
S214403B4083F31188BFF36F8FBFF34F8F62B6FEE7E4
S214403B50013AC264C06AA16C88422BD052BB251D74
S214403B602846164B984768B9E16A01EB8102144B28
S214403B7053F8223033B91348036801228A4023EAB7
S214403B8002030360A06CE062C0F10503A3610D4A26
S214403B901168012404FA00F30B43136000EB800025
S214403BA02946074B03EB8000074B9847204638BD15
S214403BB000207047002038BD4CC6402025244000D9
S214403BC058C64020D0C64020D9234000054B1B682D
S214403BD023B1044B1A68D36C0133D364014B186885
S214403BE0704700BF4CC6402008B541600061914216
S214403BF00CD8D21A83699A4201D3012008BD011D10
S214403C00094B1868094B9847002008BD9A4203D2D2
S214403C10994201D3012008BD011D054B1868034B8E
S214403C209847002008BD00BF50C74020F123400001
S214403C304CC7402070B5154B9847154B1B6813B1C1
S214403C40144B984770BD144D2846144EB047144C3C
S214403C502046B047134B1D60134B1C6000221021BA
S214403C600520124B98470A4B186018B11049114B63
S214403C709847E5E74FF0800372B683F31188BFF3A9
S214403C806F8FBFF34F8F62B6FEE700BF0925400037
S214403C9080C740205525400054C74020BD234000E3
S214403CA068C740204CC7402050C74020612A40008B
S214403CB060BE4000912F400010B584B00F4B98472F
S214403CC00F4B1B6873B100230393029301930422A6
S214403CD000924FF482720B490B480C4CA04708B137
S214403CE004B010BD4FF0800372B683F31188BFF363
S214403CF06F8FBFF34F8F62B6FEE700BF353C400084
S214403D0080C7402068BE4000393E4000A130400099
S214403D10D8B130B585B015460446154A106820B36C
S214403D201A46009101950294052919DC114B9847D3
S214403D3002284FF000030CBF089A1A4669460C4802
S214403D4000680D4CA04705B030BD4FF0800372B6FA
S214403D5083F31188BFF36F8FBFF34F8F62B6FEE7D2
S214403D6000236946054CA047EDE70020EBE700BF7F
S214403D7080C740204D3A4000DD2A4000C12C40001C
S214403D802DE9F04782B08046244B98470746244B9F
S214403D901B6898421BD30023C8F80030204B1F6096
S214403DA0384602B0BDE8F087002100910B465246E7
S214403DB020461C4CA04760B94FF0800372B683F390
S214403DC01188BFF36F8FBFF34F8F62B6FEE7164D75
S214403DD0164E2B681A68C2B1DB68D3F800A0DC68C0
S214403DE004F104094846B047636A20469847E369A9
S214403DF0012BEED1A36953449A45D5D26360246122
S214403E00494628680A4B9847E3E70A4A1068064935
S214403E10086013600123C8F80030BFE771334000E4
S214403E207CC74020113D40004CC740202524400020
S214403E30F123400050C740202DE9F04788B0754E2A
S214403E40754FDFF8FC91DFF8FC8133681A68002A6A
S214403E5000F0CE80DB681C68B84704A86F4B9847D4
S214403E600546049B002B44D1A04212D20022611B7F
S214403E706B4B18686B4B98476B4B984700283AD16A
S214403E804FF08053C9F80030BFF34F8FBFF36F8FAA
S214403E9031E0654B98473368DB68D3F80CA00AF1ED
S214403EA00400C047DAF81C30012B04D0DAF824307E
S214403EB0504698471FE0DAF8181023462A46214411
S214403EC050465A4DA8470128F0D1002100910B4694
S214403ED022465046564CA0470028E7D14FF0800374
S214403EE072B683F31188BFF36F8FBFF34F8F62B6FE
S214403EF0FEE74D4B98474A4D4E4C06E007990698CC
S214403F00059B9847049B002B09DA00231A4604A910
S214403F102868A047002898D0049B002BEEDBDDF8ED
S214403F2018A0DAF8143013B10AF10400C04703A809
S214403F303A4B9847049B092BE7D801A252F823F046
S214403F40693F4000693F4000693F40000B3F4000EA
S214403F50BD3F4000E93F4000693F4000693F4000A8
S214403F600B3F4000BD3F4000059CDAF81810234642
S214403F700246214450462D4CA0470128BCD1DAF8D1
S214403F80243050469847DAF81C30012BB4D1DAF882
S214403F901820002100910B46059802445046244CB8
S214403FA0A0470028A8D14FF0800372B683F311884B
S214403FB0BFF36F8FBFF34F8F62B6FEE70599CAF81F
S214403FC0181031B10346024601445046174CA047EC
S214403FD092E74FF0800372B683F31188BFF36F8F7A
S214403FE0BFF34F8F62B6FEE75046134B984783E7C2
S214403FF0B84704A8094B98470546049B002B7FF416
S21440400078AF0E4B1B681A68B2FA82F25209002447
S2144040102DE700BF4CC7402061334000813D400043
S21440402080C74020C52F4000C9344000E93B4000CF
S214404030113D4000C12D4000D527400050C74020CC
S21440404004ED00E025244000024A13680133136063
S214404050704700BF84C7402008B50248024B9847C7
S21440406008BD00BFACC740005561400010B50548CC
S214404070054B984700231A46194604480068044CE6
S214404080A04710BD80C7400055614000D0C74020C3
S214404090DD2A400010B50548054B984700231A46D0
S2144040A0194604480068044CA04710BD88C7400025
S2144040B055614000D4C74020DD2A400010B5054871
S2144040C0054B984700231A46194604480068044C96
S2144040D0A04710BD9CC7400055614000D8C740204F
S2144040E0DD2A4000F0B583B005460C460023019318
S2144040F02A4B984213D02A4B984218D0294B9842C4
S2144041001DD0294B9D4222D0284B9D4227D0284B7C
S2144041109D422ED0274B9D4235D003B0F0BD1F4662
S214404120254E21463846B0470028FAD1E9E71F46D3
S214404130214E21463846B0470028FAD1E4E71F46CC
S2144041401D4E21463846B0470028FAD1DFE71F46C5
S214404150194E21463846B0470028FAD1DAE71E46BF
S214404160164D01A93046A8470028FAD1019B237076
S214404170D3E71E46114D01A93046A8470028FAD17C
S214404180019B2370C9E71E460C4D01A93046A8473F
S2144041900028FAD1019B2370BFE700BF00080E40FD
S2144041A0000A0E40001A0E40001C0E40004002401E
S2144041B00080024000C00240E71F4000F32040005D
S2144041C070B50C462A4B984213D02A4B984219D0C9
S2144041D0294B98421FD0294B984225D0284B9842CD
S2144041E02BD0284B984231D0274B984237D00020CE
S2144041F070BD1E46254D21463046A8470028FAD1B8
S214404200012070BD1E46214D21463046A847002855
S214404210FAD1012070BD1E461C4D21463046A847A7
S2144042200028FAD1012070BD1E46184D2146304662
S214404230A8470028FAD1012070BD1E46144D2146DD
S2144042403046A8470028FAD1012070BD1E46104DC2
S21440425021463046A8470028FAD1012070BD1E46A8
S2144042600B4D21463046A8470028FAD1012070BDA4
S21440427000080E40000A0E40001A0E40001C0E4079
S214404280004002400080024000C00240D51F40006F
S214404290DD20400008B50A4601460248024B9847D2
S2144042A0FEE700BFC48946009160400070474FF06B
S2144042B0800372B683F31188BFF36F8FBFF34F8FBF
S2144042C062B6FEE738B50E480E4B984710F0040F1E
S2144042D00ED10B4D012128460B4CA04708212846FD
S2144042E0A04710212846A04720212846A04738BD91
S2144042F004210348044B98470122044B1A70E8E710
S21440430060180E40410440004504400093C74020DA
S21440431082B070B582B005460C4606A981E80C000E
S21440432002201D4B9847002128461C4B9847099B66
S2144043300093089B079A06992846194EB0470C9B4F
S2144043400B9A0A992846174EB04762B2E4B204F078
S2144043501F0101238B405609134800EB8601C1F824
S2144043608030C1F88031002A0FDB0F49114480228B
S21440437081F8002340F826300D9928460B4B984785
S21440438002B0BDE8704002B0704704F00F04084A1F
S21440439080211155EEE700BF091C40008502400011
S2144043A089034000F902400000E100E09B02400023
S2144043B014ED00E070B582B0002402AA42F8044D25
S2144043C0064D2346294606480068064EB0472C60F0
S2144043D00548064B984702B070BD00BF84C74020D2
S2144043E0E0C84020C12C400030180E40C5044000B4
S2144043F0F0B583B002AC04E90600009FDDF804E0A7
S214404400002B37D019468368C4689F4288BFA645AC
S2144044108CBF0122002205682B449F422CBF0023FC
S21440442002F001031BB143681C44A64525D302464F
S2144044308C4600200130604518D01646516A956A71
S2144044401C328F4294BF00240124754528BF0024A7
S214404450F36919448F422CBF002104F00101002962
S214404460E8D0316A0D447545E4D901E04FF0FF309D
S21440447003B0F0BD4FF0FF30FAE70020F8E7000049
S21440448010B50648064B984740F2DF1340F23F12FD
S21440449000210846034CA04710BD00BFFCFCFC00B2
S2144044A051124000A11440002DE9F04782B01F464B
S2144044B0DDF828800B780BB30546164618460C46A2
S2144044C0DFF8409003E014F8013F1846B3B16A7A2B
S2144044D09A42F8D32B7AC01A6B6803EBC00ADAF814
S2144044E004108B684A680968009139463046C847C8
S2144044F0DAF804305B6843441E44E4E702B0BDE8A3
S214404500F08700BF011640002DE9F04784B005460D
S214404510894690464FF0000A5446154F154E08E01F
S2144045200134E4B24FF0010A2846B047092C1BD8A4
S214404530D0B101A92846B8470028F5D1BAF1000FF6
S214404540EED1BDF8083003EB8303C3F39313C3F5F2
S214404550A073C9F80030BDF80630C3EB0313C3F3AD
S214404560D313C8F80030DBE704B0BDE8F08700BFDF
S214404570710A4000010A400080B58AB002A8134B79
S2144045809847134D134EDFF85880134C0CE000222A
S214404590114602A8B0473220A04702A8A8470028E4
S2144045A0F5D14FF49670A04702A8A8470028F8D047
S2144045B001AA694602A8B04700231A466946D8F8B9
S2144045C00000064FB847C820A047E6E70D05400064
S2144045D0010A400009454000E9354000DD2A400018
S2144045E0F4C8402030B583B01E4B98474FF4004285
S2144045F01D4B5A600C201D4CA04700234FF4807280
S2144046004FF040511A481B4DA8470A20A0471A4C65
S21440461009234FF400624FF020512046A8476422F9
S2144046204FF400612046154B9847154B0093702376
S2144046304FF400620A212046124DA8474FF400610D
S2144046402046114B98471148114B98472046114B2E
S2144046509847114B802283F80A234FF480621A60F1
S21440466003B030BDE10A400050180E40091C40001F
S21440467000120E408D174000000E0E407916400086
S21440468049404000151A40004F18400093952600B8
S214404690010040205318400000E100E010B5B4B0DF
S2144046A000920B460246074902A8074CA047012342
S2144046B0009340F21D13642202A90448044CA0470C
S2144046C034B010BD54894600296340008CBE40007B
S2144046D0A944400084B010B5B4B036AC84E80F00AE
S2144046E01F4B1B7823B934B0BDE8104004B0704768
S2144046F03CAB3BAA3AA91B481B4CA0473C9B0093AB
S2144047003B9B3A9A194902A8194CA04701230093AB
S2144047100023552202A91748174CA0470022104BE9
S2144047201A70164B1B78002BDDD0154B1B683A2BA6
S21440473003DC0133124A1360D5E70022104B1A609F
S214404740104B1B683A2B03DC01330E4A1360CAE752
S2144047500D4A13680133136000220A4B1A60C2E701
S21440476093C7402060180E409F0240005489460080
S214404770296340008CBE4000A944400092C74020B8
S214404780B8C74020A8C7402098C740200000000077
S2144047902DE9F04F2DED088B2DED02DBADF23C4DB3
S2144047A0002208210A206A4CA0476A4B1860002263
S2144047B004210A20A047684E3060032200210120D1
S2144047C0A047664B1860032200210120A047644B97
S2144047D01860032200210120A047624B1860032284
S2144047E000210120A047604B186060484FF4A0733A
S2144047F003604FF4F07343605D4B8360C3605D4B72
S21440480098475D4B984700205C4B98475C4D009519
S2144048104B231A46B42105205A4FB8475A4C0094A9
S2144048204B231A464FF482710520B847DFF894812F
S214404830CDF8008078231A4640F26311C320B8476B
S2144048407823DD93DE93C322DF9240F26310E0903C
S214404850CDF8848301228DF888234C49E391E49374
S214404860E5930521E691E790494FE8978DF8A42314
S214404870484FEA97EB93EC93ED91EE90464BEF93CF
S2144048808DF8C023F1974B23F293F3934FF0F00E3D
S214404890CDF8D0E35027F5974048F6908DF8DC23C6
S2144048A03F48F890F993FA93CDF8ECE3FC973D4FE8
S2144048B0FD978DF8F823FF90CDF80034CDF80434FA
S2144048C0CDF80814B420CDF80C04CDF810548DF86B
S2144048D014243548CDF81804CDF81C34CDF82034CF
S2144048E0CDF824144FF48273CDF82834CDF82C44F8
S2144048F08DF83024CDF83404D4AC2C4D0FCD0FC4F5
S21440490095E8070084E80700042305936C46D6AD77
S2144049100FCD0FC42B682360D4AB0CCB02212448A8
S214404920244CA04700220DF5876141F8EC2D134634
S2144049303068214CA0474FF0000B204C204D9FED97
S21440494002DB04E1AFF3008000000000000000003E
S214404950612A4000F4C84020E0C84020D0C740202C
S214404960D4C74020D8C74020DCC74020E4C84020F9
S214404970FCFCFC00DD124000814440005112400027
S214404980B8C740000116400028C94300BD4040005B
S214404990C0F5440095404000004D4400140B4400D0
S2144049A059404000404746006D40400070BE4000C1
S2144049B060180E4011434000DD2A4000C12D4000E3
S2144049C088C74020809E4500C7EBC7060DF5876325
S2144049D003EB860656F8AC3C984716F8B03CB3FA5C
S2144049E083F35B0906F8B03CDC9ADB998648874E31
S2144049F0B04739468648B047D8AB93E807008DE8BD
S214404A000700D4AB0FCB834EB047834B1A68834B1B
S214404A101968834B1868834B9847834B1B78002B49
S214404A2000F0A880814B009378231A4640F2631129
S214404A3005207F4EB0477F487F4B984708224FF46B
S214404A409671FA207D4B984701227D4B1A707D4B1C
S214404A501B78002B00F0A1807B4B00934B231A461B
S214404A605021F020724EB0475B465A46594677482A
S214404A700068A047012800F099805B465A46594690
S214404A8073480068A047012800F098805B465A4665
S214404A90594670480068A047012800F096805B465B
S214404AA05A46D3A96C480068A047012800F0FE800B
S214404AB053A3D3E900236949D1E90001684EB047C2
S214404AC002460B4667490BA8DFF8DC91C847664F9D
S214404AD04FF00108CDF80080642346220BA93846E3
S214404AE0624EB047624B93E803003D908DF8F81055
S214404AF0CDF80080642396223DA93846B047DFF8BB
S214404B009CA1DAE90023CDE90023D5E900235949E1
S214404B106FA8C847CDF80080C32364226FA93846E3
S214404B20B047DAE900235449A1A8C847CDF8008029
S214404B30C323E622A1A93846B047504B1B78002B2A
S214404B4000F087814FF480714D484E4B98475B4646
S214404B506422DBA94C480068A04700283FF44CAFCD
S214404B600723DBAA06CADDA8484EB047071EBFF695
S214404B702BAF39E7464B009378231A4640F2631131
S214404B8005202B4EB04743482B4B98470A224FF4FC
S214404B909671FA20294B984759E73F4B00934B2391
S214404BA01A465021F020224EB0475DE7334B1B7823
S214404BB0B3FA83F35B09314A13705EE71A4A1378F7
S214404BC0B3FA83F35B09137060E7174B83F800B0C2
S214404BD0134BC3F800B0114BC3F800B00E4BC3F8EC
S214404BE000B085ED00DB2D4B83ED00DB2C4B83EDD9
S214404BF000DB2C4B83ED00DB51E700BFAFF30080BA
S214404C00CDCCCCCCCCCC0C406489460091604000E6
S214404C1070894600D5464000B8C74020A8C7402007
S214404C2098C740209D46400092C74020004D440013
S214404C30011640004460FC00511240005D154000E3
S214404C4090C7402094C74020140B4400D0C7402053
S214404C50D4C74020D8C74020E0C84020C0C7402026
S214404C60755340009C8946008CBE4000A9444000D5
S214404C70A4894600AC894600B889460091C74020C2
S214404C8000120E4097164000F4C84020F143400002
S214404C90C0F54400FCFCFC0040474600C8C7402026
S214404CA0B0C74020A0C74020296340000022704B78
S214404CB07049D1E90001704EB047704B9847814625
S214404CC06F4E594630466F4B98474FF4005130462A
S214404CD06D4B984730466D4B98470646DFF8A081A7
S214404CE06A4F4046B8478642FBD0654F09EB0601FF
S214404CF03846674B9847674B0822C3F88020C3F86E
S214404D008021802183F803131A604FF4803138469F
S214404D10614B9847D3996148614B9847614F624EC3
S214404D200022624BD7E90001B04741EC1A0BC7E9B5
S214404D3000015F4B93ED009BD3985E4B9847CDE9BF
S214404D4008014C4B93ED008B5B4FD7E9009A5B4BC9
S214404D5093ED00BB53EC192B51EC190BB047DFF821
S214404D601881DDE90823C047554E53EC182BB04751
S214404D7053EC1B2BC047C7E900014A465346514FE8
S214404D80B84753EC182BB047CDE906014E4B1B787D
S214404D90002B2CD04D4F444ED7E90023DDE90801C7
S214404DA0B04702460B46C7E90023B047464653EC99
S214404DB0192BC04753EC1B2BC04729A3D3E900232C
S214404DC0C047C5E9000128A3D3E90023C047804671
S214404DD0894653EC182B51EC1A0BB04702460B464B
S214404DE040464946364EB047394BC3E90001394F35
S214404DF0D5E9002338462A4EB0472F4BD3E9002347
S214404E003846B047324BD3E900233846B047194BB3
S214404E10D3E900233048B047224BD3E900232F483C
S214404E20B04753EC1D2BDDE906012D4EB04760B967
S214404E3053EC1D2BDDE906012A4EB04700283FF40F
S214404E4037AE294B83F800B032E60122264B1A7063
S214404E50EEE74FF480712548254B984777E600BF2C
S214404E60FCA9F1D24D62503F000000000020AC404B
S214404E70000010401800402075534000A9584000DC
S214404E8030180E405D04400049044000B104400024
S214404E90C904400000E100E08904400078894600EB
S214404EA091604000A0C74020115040000000F03FF5
S214404EB02000402089524000C0C7402028004020A3
S214404EC0C95540000D50400092C74020B0C7402012
S214404ED0C8C740207C894600848946008C894600A5
S214404EE0595840009558400094C7402000120E4044
S214404EF09316400000B58BB02A4B98472A4B9847EC
S214404F002A4B98472A4D2B4B1D602B4A2B4B1A6039
S214404F102B4A2C4B1A604FF4E1330493C02305937D
S214404F204FF4006306930024079408940E20264B03
S214404F309847264A04A92846254B98472846254B95
S214404F4098472846244B9847244E3368214698680D
S214404F50234DA847336821465868A84703940294CF
S214404F600194009423464FF400721E491E481F4C7D
S214404F70A047012802D01E481E4B984700230393A3
S214404F800293019300934FF480621B491B48174CD1
S214404F90A047012802D01648164B9847184B98470A
S214404FA0FEE700BFE10A4000710D4000E5454000C5
S214404FB0008002409CC84020C141400098C8402024
S214404FC0E540400094C84020091C400080D1F008CD
S214404FD07D204000D1204000D720400030004020B7
S214404FE0896140002C89460079454000A130400048
S214404FF03089460055614000508946009147400040
S214405000D532400081F0004102E000BF83F000430B
S21440501030B54FEA41044FEA430594EA050F08BF0E
S21440502090EA020F1FBF54EA000C55EA020C7FEAD2
S214405030645C7FEA655C00F0E2804FEA5454D4EB4F
S2144050405555B8BF6D420CDD2C4480EA020281EA19
S214405050030382EA000083EA010180EA020281EA51
S2144050600303362D88BF30BD11F0004F4FEA0131A3
S2144050704FF4801C4CEA113102D0404261EB4101B2
S21440508013F0004F4FEA03334CEA133302D0524238
S21440509063EB430394EA050F00F0A780A4F10104F4
S2144050A0D5F1200E0DDB02FA0EFC22FA05F280182E
S2144050B041F1000103FA0EF2801843FA05F3594114
S2144050C00EE0A5F120050EF1200E012A03FA0EFC93
S2144050D028BF4CF0020C43FA05F3C01851EBE371BD
S2144050E001F0004507D54FF0000EDCF1000C7EEBDA
S2144050F000006EEB0101B1F5801F1BD3B1F5001F18
S2144051000CD349085FEA30004FEA3C0C04F1010436
S2144051104FEA445212F5800F80F09A80BCF1004F5F
S21440512008BF5FEA500C50F1000041EB045141EAE1
S214405130050130BD5FEA4C0C404141EB010111F4E2
S214405140801FA4F10104E9D191F0000F04BF01468D
S2144051500020B1FA81F308BF2033A3F10B03B3F16B
S21440516020020CDA0C3208DD02F1140CC2F10C02FB
S21440517001FA0CF021FA02F10CE002F11402D8BF59
S214405180C2F1200C01FA02F120FA0CFCDCBF41EA25
S2144051900C019040E41AA2BF01EB0451294330BDF4
S2144051A06FEA04041F3C1CDA0C340EDC04F11404D1
S2144051B0C4F1200220FA04F001FA02F340EA0300A8
S2144051C021FA04F345EA030130BDC4F10C04C4F1EE
S2144051D0200220FA02F001FA04F340EA03002946CE
S2144051E030BD21FA04F0294630BD94F0000F83F418
S2144051F0801306BF81F480110134013D4EE77FEAFB
S214405200645C18BF7FEA655C29D094EA050F08BF46
S21440521090EA020F05D054EA000C04BF1946104627
S21440522030BD91EA030F1EBF0021002030BD5FEA6B
S214405230545C05D14000494128BF41F0004130BD93
S21440524014F580043CBF01F5801130BD01F00045E7
S21440525045F0FE4141F470014FF0000030BD7FEA5A
S214405260645C1ABF194610467FEA655C1CBF0B4655
S214405270024650EA013406BF52EA033591EA030F6C
S21440528041F4002130BD00BF90F0000F04BF002164
S214405290704730B54FF4806404F132044FF0000597
S2144052A04FF0000150E700BF90F0000F04BF002110
S2144052B0704730B54FF4806404F1320410F0004576
S2144052C048BF40424FF000013EE700BF42004FEA71
S2144052D0E2014FEA31014FEA02701FBF12F07F43EE
S2144052E093F07F4F81F06051704792F0000F14BFEB
S2144052F093F07F4F704730B54FF4607401F000452F
S21440530021F0004120E700BF50EA010208BF704785
S21440531030B54FF000050AE050EA010208BF70477A
S21440532030B511F0004502D5404261EB41014FF4E3
S214405330806404F132045FEA915C3FF4DCAE4FF0E7
S21440534003025FEADC0C18BF03325FEADC0C18BFCE
S214405350033202EBDC02C2F1200300FA03FC20FA1F
S21440536002F001FA03FE40EA0E0021FA02F114446C
S214405370C1E600BF70B54FF0FF0C4CF4E06C1CEA81
S21440538011541DBF1CEA135594EA0C0F95EA0C0FF6
S21440539000F0DEF82C4481EA030621EA4C5123EA69
S2144053A04C5350EA013518BF52EA033541F4801198
S2144053B043F4801338D0A0FB02CE4FF00005E1FB4B
S2144053C002E506F00042E0FB03E54FF00006E1FB95
S2144053D003569CF0000F18BF4EF0010EA4F1FF04D8
S2144053E0B6F5007F64F5407404D25FEA4E0E6D4118
S2144053F046EB060642EAC62141EA55514FEAC52029
S21440540040EA5E504FEACE2EB4F1FD0C88BFBCF5A4
S214405410E06F1ED8BEF1004F08BF5FEA500E50F155
S214405420000041EB045170BD06F0004646EA01011B
S21440543040EA020081EA0301B4EB5C04C2BFD4EB4D
S2144054400C0541EA045170BD41F480114FF0000E46
S214405450013C00F3AB8014F1360FDEBF002001F0B4
S214405460004170BDC4F10004203C35DA0C341BDC2E
S21440547004F11404C4F1200500FA05F320FA04F000
S21440548001FA05F240EA020001F0004221F0004134
S21440549010EBD37021FA04F642EB06015EEA430EA7
S2144054A008BF20EAD37070BDC4F10C04C4F12005D7
S2144054B000FA04F320FA05F001FA04F240EA02008A
S2144054C001F0004110EBD37041F100015EEA430E5B
S2144054D008BF20EAD37070BDC4F1200500FA05F27B
S2144054E04EEA020E20FA04F301FA05F243EA0203FA
S2144054F021FA04F001F0004121FA04F220EA020009
S21440550000EBD3705EEA430E08BF20EAD37070BD4E
S21440551094F0000F0FD101F00046400041EB01012E
S21440552011F4801F08BF013CF7D041EA060195F010
S214405530000F18BF704703F00046520043EB0303CA
S21440554013F4801F08BF013DF7D043EA06037047B7
S21440555094EA0C0F0CEA135518BF95EA0C0F0CD0C2
S21440556050EA410618BF52EA4306D1D181EA030108
S21440557001F000414FF0000070BD50EA410606BF02
S2144055801046194652EA430619D094EA0C0F02D147
S21440559050EA013613D195EA0C0F05D152EA03368C
S2144055A01CBF104619460AD181EA030101F00041AA
S2144055B041F0FE4141F470014FF0000070BD41F0F3
S2144055C0FE4141F4780170BD70B54FF0FF0C4CF4CD
S2144055D0E06C1CEA11541DBF1CEA135594EA0C0FEC
S2144055E095EA0C0F00F0A7F8A4EB050481EA030E39
S2144055F052EA03354FEA013100F088804FEA033320
S2144056004FF0805545EA131343EA12634FEA0222ED
S21440561045EA111545EA10654FEA00260EF00041AE
S2144056209D4208BF964244F1FD0404F5407402D200
S2144056305B084FEA3202B61A65EB03055B084FEA91
S21440564032024FF480104FF4002CB6EB020E75EB8E
S214405650030E22BFB61A754640EA0C005B084FEAB6
S2144056603202B6EB020E75EB030E22BFB61A754633
S21440567040EA5C005B084FEA3202B6EB020E75EB7E
S214405680030E22BFB61A754640EA9C005B084FEAF6
S2144056903202B6EB020E75EB030E22BFB61A754603
S2144056A040EADC0055EA060E18D04FEA051545EAF2
S2144056B016754FEA06164FEAC30343EA52734FEA9B
S2144056C0C2025FEA1C1CC0D111F4801F0BD141EA14
S2144056D000014FF000004FF0004CB6E711F4801F79
S2144056E004BF01430020B4F1FD0C88BFBCF5E06F59
S2144056F03FF6AFAEB5EB030C04BFB6EB020C5FEA69
S214405700500C50F1000041EB045170BD0EF0004EBD
S2144057104EEA113114EB5C04C2BFD4EB0C0541EAEF
S214405720045170BD41F480114FF0000E013C90E6EC
S21440573045EA060E8DE60CEA135594EA0C0F08BFB0
S21440574095EA0C0F3FF43BAF94EA0C0F0AD150EAAF
S21440575001347FF434AF95EA0C0F7FF425AF104642
S21440576019462CE795EA0C0F06D152EA03353FF46A
S214405770FDAE1046194622E750EA410618BF52EAE7
S21440578043067FF4C5AE50EA41047FF40DAF52EABB
S21440579043057FF4EBAE12E74FF0FF3C06E000BF58
S2144057A04FF0010C02E000BF4FF0010C4DF804CD65
S2144057B04FEA410C7FEA6C5C4FEA430C18BF7FEA25
S2144057C06C5C1BD001B050EA410C0CBF52EA430C53
S2144057D091EA030F02BF90EA020F0020704710F1D3
S2144057E0000F91EA030F58BF994208BF90422CBF62
S2144057F0D8176FEAE37040F0010070474FEA410C5B
S2144058007FEA6C5C02D150EA013C07D14FEA430C78
S2144058107FEA6C5CD6D152EA033CD3D05DF8040BE9
S214405820704700BF8446104662468C46194663461B
S21440583000E000BF01B5FFF7B7FF002848BF10F1F2
S214405840000F01BD4DF808EDFFF7F4FF0CBF012037
S21440585000205DF808FB00BF4DF808EDFFF7EAFFB3
S21440586034BF012000205DF808FB00BF4DF808ED6E
S214405870FFF7E0FF94BF012000205DF808FB00BF63
S2144058804DF808EDFFF7CEFF94BF012000205DF8ED
S21440589008FB00BF4DF808EDFFF7C4FF34BF0120FA
S2144058A000205DF808FB00BF4A0011D212F5001236
S2144058B011D20DD56FF47873B3EB62520ED44FEA23
S2144058C0C12343F0004343EA505323FA02F07047A3
